:020000042000DA
:1000000093000000374100001B0181FF93010000B5
:10001000130200009302000013030000930300008A
:100020001304000093040000130500009305000072
:10003000130600009306000013070000930700005A
:100040001308000093080000130900009309000042
:10005000130A0000930A0000130B0000930B00002A
:10006000130C0000930C0000130D0000930D000012
:10007000130E0000930E0000130F0000930F0000FA
:10008000B7E2010073A00230930210009392F201D4
:1000900063DA0200130510009702020023A4A2F6FF
:1000A0006FF05FFF97020000938202097390523055
:1000B00073103000530000F0D30000F0530100F043
:1000C000D30100F0530200F0D30200F0530300F01C
:1000D000D30300F0530400F0D30400F0530500F004
:1000E000D30500F0530600F0D30600F0530700F0EC
:1000F000D30700F0530800F0D30800F0530900F0D4
:10010000D30900F0530A00F0D30A00F0530B00F0BB
:10011000D30B00F0530C00F0D30C00F0530D00F0A3
:10012000D30D00F0530E00F0D30E00F0530F00F08B
:10013000D30F00F097020000938282057390523033
:10014000970200009382821A739052109751040014
:10015000938141EB1702030013023222137202FC57
:10016000732540F1930510006370B5001316150157
:100170003302C200130115001311110133014100B4
:10018000374100001B0181FF6F00C24F130101EFD7
:100190002334110023382100233C31002330410255
:1001A0002334510223386102233C7102233081043D
:1001B000233491042338A104233CB1042330C10625
:1001C0002334D1062338E106233CF106233001090C
:1001D0002334110923382109233C31092330410BF1
:1001E0002334510B2338610B233C710B2330810DD9
:1001F0002334910D2338A10D233CB10D2330C10FC1
:100200002334D10F2338E10F233CF10F7325203421
:100210002330A110F32510342334B110F32500301E
:100220002338B11013060100EF00124CF3251034EF
:10023000B72200009B82028073A0023083308100CD
:1002400003310101833181010332010283328102D2
:1002500003330103833381030334010483348104B2
:100260000335010583358105033601068336810692
:100270000337010783378107033801088338810872
:100280000339010983398109033A010A833A810A52
:10029000033B010B833B810B033C010C833C810C32
:1002A000033D010D833D810D033E010E833E810E12
:1002B000033F010F833F810F033E0110833E8110F6
:1002C000033F01111301011173100F309353FE030B
:1002D00063940300938E4E0073901E34130E8008B7
:1002E00073300E3073002030130101EF23341100FE
:1002F00023382100233C31002330410223345102B2
:1003000023386102233C7102233081042334910499
:100310002338A104233CB1042330C1062334D10681
:100320002338E106233CF106233001092334110967
:1003300023382109233C31092330410B2334510B4D
:100340002338610B233C710B2330810D2334910D35
:100350002338A10D233CB10D2330C10F2334D10F1D
:100360002338E10F233CF10F73252014F3251014DB
:1003700013060100EF0012597310151493020010B8
:1003800073A00210833081000331010183318101A8
:100390000332010283328102033301038333810379
:1003A0000334010483348104033501058335810559
:1003B0000336010683368106033701078337810739
:1003C0000338010883388108033901098339810919
:1003D000033A010A833A810A033B010B833B810BF9
:1003E000033C010C833C810C033D010D833D810DD9
:1003F000033E010E833E810E033F010F833F810FB9
:0804000013010111730020102B
:020000042002D8
:1000000000000000000000000000000000000000F0
:1000100000000000000000000000000000000000E0
:1000200000000000000000000000000000000000D0
:1000300000000000000000000000000000000000C0
:080040000000000000000000B8
:10004800130101FD2334810213040103233CA4FCA2
:1000580093870500232AF4FC833784FD2334F4FEB8
:100068006F008001833784FE23800700833784FE76
:10007800938717002334F4FE836744FD033784FD18
:10008800B307F700033784FEE36EF7FC13000000A4
:10009800033481021301010367800000130101FD8D
:1000A8002334810213040103233CA4FC9387050035
:1000B800232AF4FC833784FD2334F4FE6F00800187
:1000C800833784FE23A00700833784FE9387470085
:1000D8002334F4FE836744FD93972700033784FD98
:1000E800B307F700033784FEE36CF7FC1300000046
:1000F800033481021301010367800000130101FB2F
:100108002334110423308104130401052334A4FC8F
:100118002330B4FC9307060013870600232EF4FA55
:1001280093070700232CF4FA833784FC033704FC75
:1001380023B0E700833784FC0327C4FB23A4E7002C
:10014800833784FC032784FB23A6E700F32740F1C9
:100158002334F4FE833784FE2330F4FE833784FC93
:1001680003B70700833704FE939777003307F70038
:10017800B7270000B307F700138707008327C4FBDE
:100188009BD737009B870700938507001305070057
:10019800EFF01FEB833784FC83B707001387070052
:1001A8008327C4FB9385070013050700EFF01FEFB3
:1001B800833784FC03B70700833704FE9397C7008F
:1001C8003307F700B7070100B307F700233CF4FC37
:1001D800833784FD23A007001300000083308104C7
:1001E800033401041301010567800000130101FCB9
:1001F800233C8102130401042334A4FC93870500E3
:100208002322F4FCF32740F12334F4FE833784FEE1
:100218002330F4FE833784FC03B70700833704FEDA
:100228009397C7003307F700B7070100B307F70034
:10023800233CF4FC833784FD83A70700232AF4FCBE
:10024800833784FD032744FC23A0E7001300000044
:10025800033481031301010467800000130101FCCA
:10026800233C8102130401042334A4FC9387050072
:100278002322F4FCF32740F12334F4FE833784FE71
:100288002330F4FE833784FC03B70700833704FE6A
:10029800939777003307F700832744FC9BD73700F1
:1002A8009B8707009397070293D707023307F70046
:1002B800B7270000B307F700233CF4FC833784FD1D
:1002C80083C70700A30BF4FC832744FC93F777004C
:1002D8009B87070013071000BB17F7009B870700D1
:1002E8001B9787011B578741830774FDB367F70086
:1002F8009B9787019BD78741A30BF4FC833784FD29
:10030800034774FD2380E7001300000003348103D2
:100318001301010467800000130101FC233C8102E2
:10032800130401042334A4FC938705002322F4FC5E
:10033800F32740F12334F4FE833784FE2330F4FEA0
:10034800833784FC03B70700833704FE939777004D
:100358003307F700832744FC9BD737009B870700A8
:100368009397070293D707023307F700B7270000D0
:10037800B307F700233CF4FC833784FD83C70700E9
:10038800A30BF4FC832744FC93F777009B870700B3
:1003980013071000BB17F7009B8707009B9787017F
:1003A8009BD7874193C7F7FF1B9787011B57874147
:1003B800830774FDB377F7009B9787019BD7874125
:1003C800A30BF4FC833784FD034774FD2380E70007
:1003D8001300000003348103130101046780000047
:1003E800130101FD2334810213040103233CA4FCFF
:1003F8009387050013070600232AF4FC93070700D8
:100408002328F4FC833784FD83A7C700638007048F
:10041800833784FD03B70700832744FD9B97270094
:100428009B8707009397070293D70702B307F70044
:100438002334F4FE833784FE032704FD23A0E7005A
:10044800833784FE83A707002322F4FE13000000ED
:10045800033481021301010367800000130101FCCA
:10046800233C8102130401042334A4FCF32740F144
:100478002334F4FE833784FE2330F4FE833784FC70
:1004880003B70700833704FE9397C7003307F700C5
:10049800B707010093870701B307F700233CF4FC73
:1004A800833784FD83A707009B8707001385070010
:1004B800033481031301010467800000130101FC68
:1004C800233C8102130401042334A4FC9387050010
:1004D8002322F4FCF32740F12334F4FE833784FE0F
:1004E8002330F4FE833784FC03B70700833704FE08
:1004F8009397C7003307F700B707010093870701F1
:10050800B307F700233CF4FC833784FD032744FC3E
:1005180023A0E70013000000033481031301010442
:1005280067800000130101FE233C1100233881007D
:100538001304010217250000130545E1EF10C07DE3
:1005480017050100130505DEEFF05FF193070500BD
:100558002326F4FE8327C4FE9B87070063820706D1
:100568008327C4FE1B8707009307F00363EAE704A9
:100578008327C4FE9385070017250000130585E02F
:10058800EF108079170701001307C7B98367C4FE06
:1005980093973700B307F70003B707008327C4FE14
:1005A80013850700E70007008327C4FE938507002B
:1005B80017050100130505D7EFF05FF06F00800203
:1005C80017250000130505E0EF1000758327C4FE0A
:1005D8009B8717009B8707009B87070013850700E9
:1005E800EF00904E833081010334010113010102B1
:1005F80067800000130101FF233481001304010107
:10060800130000000334810013010101678000001A
:10061800130101FF233481001304010113000000BA
:10062800033481001301010167800000130101FFF9
:100638002334810013040101930700001385070088
:10064800033481001301010167800000130101FEDA
:10065800233C11002338810013040102930705008D
:100668002326F4FEEFF09FFC130000008330810185
:10067800033401011301010267800000130101FC2A
:10068800233C110223388102130401049307050057
:100698002330B4FC2326F4FC232604FE6F00000359
:1006A80017070100130707A88327C4FE939737008D
:1006B800B307F70017070000130787F923B0E7000F
:1006C8008327C4FE9B8717002326F4FE8327C4FED6
:1006D8001B8707009307F003E3D4E7FC232404FEF9
:1006E8006F0000031707010013074791832784FE53
:1006F80093973700B307F70017070000130787F130
:1007080023B0E700832784FE9B8717002324F4FE89
:10071800832784FE1B8707009307F001E3D4E7FCD7
:10072800970701009387878D170700001307C7DF16
:1007380023BCE7049306200013060004B717E00162
:1007480093957700170501001305C5BDEFF01F9BB2
:10075800232204FE6F004002832744FE938507008E
:1007680017050100130505BCEFF05FAF832744FEB2
:100778009B8717002322F4FE832744FE1B8707006C
:100788009307F003E3DAE7FC130680009305900172
:1007980017050100130505B9EFF09FC41306800083
:1007A8009305A001170501001305C5B7EFF05FC356
:1007B800130680009305B00117050100130585B6DF
:1007C800EFF01FC2130680009305C0011705010052
:1007D800130545B5EFF0DFC0130680009305D0017F
:1007E80017050100130505B4EFF09FBF130680003D
:1007F8009305E001170501001305C5B2EFF05FBED0
:1008080093050000170501001305C5B1EFF01F9E01
:10081800B71700009B870780F3A74730233CF4FCF9
:10082800F36704302338F4FC930710002320F4FE08
:100838006F000001832704FE9B8717002320F4FE26
:10084800832704FE1B8707009307700CE3D4E7FE99
:100858006F000000930700001385070083308103B1
:10086800033401031301010467800000130101FD33
:1008780023348102130401032334A4FE9387050063
:10088800233CC4FC2322F4FE13000000033481023D
:100898001301010367800000130101FD2334810265
:1008A800130401032334A4FE93870500233CC4FCEE
:1008B8002322F4FE13000000033481021301010314
:1008C80067800000130101FB233481041304010530
:1008D800930705002330B4FC233CC4FA2326F4FC18
:1008E800232604FE6F00000C8327C4FE939727007D
:1008F800033704FCB307F70083A707002324F4FE9B
:100908008327C4FE9387170093972700033704FCB7
:10091800B307F70083A707002322F4FE8327C4FE4A
:1009280093972700033784FBB307F70083A70700D3
:100938002320F4FE8327C4FE93871700939727008C
:10094800033784FBB307F70083A70700232EF4FCC3
:10095800032784FE832704FE1B0707009B870700E5
:10096800630AF7008327C4FE9B8717009B8707004D
:100978006F00400B032744FE8327C4FD1B070700B5
:100988009B870700630AF7008327C4FE9B8727001D
:100998009B8707006F0000098327C4FE9B872700F9
:1009A8002326F4FE8327C4FC1BD7F701BB07F700F7
:1009B8009BD717409B8707009B9717001B8707004B
:1009C8008327C4FE9B870700E3C0E7F28327C4FCA4
:1009D80093F717009B870700638407048327C4FCE9
:1009E800939727009387C7FF033704FCB307F700E3
:1009F80083A707009B8607008327C4FC93972700DB
:100A08009387C7FF033784FBB307F70083A7070063
:100A1800138706006306F7008327C4FC6F00800075
:100A280093070000138507000334810413010105AF
:100A380067800000130101FA233C810413040106B6
:100A4800930705002338B4FA2334C4FA232EF4FAA2
:100A5800232604FE6F00800D8327C4FE939737007A
:100A6800033704FBB307F70087B707002730F4FE06
:100A78008327C4FE9387170093973700033704FB37
:100A8800B307F70087B70700273CF4FC8327C4FEA9
:100A980093973700033784FAB307F70087B707003F
:100AA8002738F4FC8327C4FE9387170093973700F1
:100AB800033784FAB307F70087B707002734F4FC35
:100AC800073704FE873704FDD327F7A2B337F000B2
:100AD80093F7F70F2322F4FC073784FD873784FC4C
:100AE800D327F7A2B337F00093F7F70F2320F4FCCE
:100AF800032744FC832704FCB377F7009B87070090
:100B0800639007028327C4FE9B8717009B87070013
:100B1800032744FCBB07F7009B8707006F00C0084A
:100B28008327C4FE9B8727002326F4FE8327C4FB64
:100B38001BD7F701BB07F7009BD717409B87070018
:100B48009B9717001B8707008327C4FE9B87070016
:100B5800E3C4E7F08327C4FB93F717009B870700DC
:100B6800638207048327C4FB93973700938787FF23
:100B7800033704FBB307F70007B707008327C4FB55
:100B880093973700938787FF033784FAB307F700F3
:100B980087B70700D327F7A2639607008327C4FB0C
:100BA8006F00800093070000138507000334810558
:100BB8001301010667800000130101FE233C810038
:100BC80013040102930705002326F4FE832702007D
:100BD80093B7170093F7F70F1B8707002320E2004E
:100BE80097F7000093878753130710000F00500FE3
:100BF800AFA6E7049B8706001B8707008327C4FE70
:100C08009B87F7FF9B8707006312F70297F700009F
:100C18009387C75023A007000327020097F7000017
:100C28009387075023A0E7006F000002130000001D
:100C380097F700009387C74E83A707001B87070015
:100C480083270200E316F7FE130000000334810136
:100C58001301010267800000130101FD23348102A2
:100C680013040103233CA4FC833784FD13D7170026
:100C7800833784FDB347F70093F717002334F4FE56
:100C8800833784FD13D71700833784FE9397E703D0
:100C9800B367F700138507000334810213010103CA
:100CA80067800000130101F52334810A1304010B46
:100CB8002334A4F62330B4F6233CC4F42338D4F404
:100CC800930704FF938707F89387F70393D7670081
:100CD80093976700033784F623B0E700033704F6D9
:100CE80023B4E700033784F523B8E700033704F596
:100CF80023BCE7009386070017F7FFFF13070730A9
:100D08002330D7001300000017F7FFFF130707333E
:100D180003370700E30A07FE83B7070013850700B8
:100D28000334810A1301010B67800000130101FBE2
:100D3800233481041304010593070500232EF4FAD4
:100D4800232E04FC8327C4FD1B870700930710008C
:100D5800E3CAE7FEF32700B02338F4FC833704FD29
:100D68002334F4FE8327C4FB9B870700639407049E
:100D780017F70000130787388327C4FD93973700B8
:100D8800B307F70083B70700033784FEB307F740BC
:100D98002334F4FE17F70000130747378327C4FDF1
:100DA80093973700B307F700171700001307076476
:100DB80023B0E7008327C4FD1B871700232EE4FC1C
:100DC80017F700001307873393973700B307F70027
:100DD800033784FE23B0E7008327C4FD1B87070081
:100DE80093071000E3CAE7FEF32720B02334F4FC8E
:100DF800833784FC2330F4FE8327C4FB9B870700DA
:100E08006394070417F700001307472F8327C4FDCF
:100E180093973700B307F70083B70700033704FE3B
:100E2800B307F7402330F4FE17F700001307072E27
:100E38008327C4FD93973700B307F70017170000FF
:100E48001307475B23B0E7008327C4FD1B87170000
:100E5800232EE4FC17F700001307472A939737005F
:100E6800B307F700033704FE23B0E70013000000C0
:100E7800033481041301010567800000130101FE9A
:100E8800233C8100130401022334A4FE1B03100F2A
:100E9800131383018305C30093F51500E38C05FE46
:100EA800833784FE9397170013E7170097F7FFFF20
:100EB8009387C71423B0E7006F000000130101FDFA
:100EC8002334110223308102130401032334A4FEC6
:100ED8002330B4FE233CC4FC13059053EFF01FFAF3
:100EE800130101FD2334110223308102130401038D
:100EF8002334A4FE2330B4FE233CC4FC17150000A1
:100F080013054550EF005061833784FE13D7F7036C
:100F180093071000631CF70097F700009387070EEC
:100F280083B78705E78007006F00C01B833784FEFF
:100F3800639A0700171500001305C54EEF00D05D32
:100F48006F00401A033784FE93071000631AF700F6
:100F5800171500001305854FEF00105C6F0080180F
:100F6800033784FE93072000631AF7001715000063
:100F780013054550EF00505A6F00C016033784FE22
:100F880093073000631AF700171500001305855002
:100F9800EF0090586F000015033784FE9307400058
:100FA800631AF7001715000013054550EF00D056D7
:100FB8006F004013033784FE93075000631AF7004D
:100FC8001715000013050551EF0010556F0080112B
:100FD800033784FE93071001631AF7001715000002
:100FE80013054551EF0050536F000000033784FE8E
:100FF80093076000631AF7001715000013050551E1
:10100800EF0090516F00000E033784FE93077000C5
:10101800631AF7001715000013054551EF00D04F6C
:101028006F00400C033784FE93078000631AF700B3
:101038001715000013058551EF00104E6F00800A48
:10104800033784FE93079000631AF7001715000012
:101058001305C552EF00504C6F00C008033784FEDB
:101068009307A000631AF70017150000130505542D
:10107800EF00904A6F000007033784FE9307B00023
:10108800631AF7001715000013054555EF00D048FF
:101098006F004005033784FE9307C000631AF7000A
:1010A8001715000013058556EF0010476F008003E1
:1010B800033784FE9307D000631AF7001715000062
:1010C8001305C556EF0050456F00C001033784FE75
:1010D8009307F0006318F7001715000013058556ED
:1010E800EF0090431300000013850700833081024E
:1010F800033401021301010367800000130101FD9D
:101108002334110223308102130401032334A4FE83
:101118002330B4FE233CC4FC171500001305855486
:10112800EF00903F833784FE639A0700171500008D
:101138001305452FEF00503E6F008018033784FEDB
:1011480093071000631AF700171500001305053000
:10115800EF00903C6F00C016033784FE9307200011
:10116800631AF700171500001305C530EF00D03AD1
:101178006F000015033784FE93073000631AF700E9
:101188001715000013050531EF0010396F004013E3
:10119800033784FE93074000631AF7001715000011
:1011A8001305C530EF0050376F008011033784FEF8
:1011B80093075000631AF7001715000013058531CF
:1011C800EF0090356F00C00F033784FE930760006F
:1011D800631AF7001715000013054533EF00D033E5
:1011E8006F00000E033784FE93077000631AF70040
:1011F8001715000013058533EF0010326F00400CFF
:10120800033784FE93078000631AF7001715000060
:101218001305C533EF0050306F00800A033784FE92
:1012280093079000631AF70017150000130505359A
:10123800EF00902E6F00C008033784FE9307A000CC
:10124800631AF7001715000013054536EF00D02C78
:101258006F000007033784FE9307B000631AF70096
:101268001715000013058537EF00102B6F00400598
:10127800033784FE9307C000631AF70017150000B0
:101288001305C538EF0050296F008003033784FE2B
:101298009307D000631AF7001715000013050539E6
:1012A800EF0090276F00C001033784FE9307F0001A
:1012B8006318F700171500001305C538EF00D0258F
:1012C80013059053EFF09FBB130101FE233C11005F
:1012D8002338810013040102930705002326F4FE36
:1012E8008327C4FE13850700EFF05FB9130101FFE0
:1012F8002334110023308100130401011305600811
:10130800EFF09FFC130101FD233411022330810209
:10131800233C910013040103233CA4FC833484FD83
:10132800033584FDEF00D057930705009386070027
:10133800138604009305100013050004EFF09F9630
:1013480013000000833081020334010283348101D9
:101358001301010367800000130101FE233C810093
:101368001304010293070500138705002326F4FEE2
:10137800930707002324F4FE8327C4FE9B870700F6
:10138800E39C07FE130000000334810113010102EE
:1013980067800000130101FE233C110023388100FF
:1013A80013040102930705002330B4FE2326F4FE3C
:1013B800171500001305052DEFF0DFF49307F0FF74
:1013C80013850700833081010334010113010102F1
:1013D80067800000130101FE233C110023388100BF
:1013E800130401021307020093070200B307F74032
:1013F8002334F4FE93070200033684FE97F50000B9
:10140800938545F313850700EF00102C130742005E
:1014180093070200B307F7402330F4FE13070200D6
:10142800833784FEB307F700033604FE93050000F4
:1014380013850700EF001037130000008330810187
:10144800033401011301010267800000130101FF49
:101458002334810013040101371301001B03032007
:1014680093033008230C7300930300002304030044
:10147800930350002300730093033000230C730080
:1014880093036000230873002304030093070000FC
:1014980013850700033481001301010167800000F0
:1014A800130101FE233C8100130401029307050088
:1014B8002326F4FE8327C4FE93F7F70F138507004E
:1014C8001B03100F131383018305C30093F5250035
:1014D800E38C05FE2302A300930700001385070091
:1014E800033481011301010267800000130101F434
:1014F800233C110A2338810A2334910A1304010C6E
:1015080093070500138705002326F4F493070700C3
:101518002324F4F4930704FE938707F79387F703CC
:1015280093D7670093946700EFF0DFEA032784F40A
:101538008327C4F49305070013850700EFF0DFE164
:101548009305000013050000EFF04F939307050083
:10155800232CF4FC233894FC232E04FC6F00800316
:1015680017F70000130787B98327C4FD939737003F
:10157800B307F70083B7070063880700832784FD54
:1015880013850700EFF05FD48327C4FD9B871700FE
:10159800232EF4FC8327C4FD1B8707009307100044
:1015A800E3D0E7FC130000008330810B0334010B08
:1015B8008334810A1301010C67800000130101FCC8
:1015C800233C110223388102130401042334A4FCB0
:1015D800232604FE6F00C006833784FC93F7F70FB9
:1015E80093F7F70013F7F70F833784FC93F6F700A8
:1015F8009307900063E6D700930700036F0080000D
:10160800930770051306F0008326C4FEBB06D64078
:101618009B860600BB87E70013F7F70F930704FFC5
:10162800B387D7002384E7FE833784FC93D747002A
:101638002334F4FC8327C4FE9B8717002326F4FE7B
:101648008327C4FE1B8707009307F000E3D6E7F85B
:10165800230404FE930784FD13850700EFF09FCA57
:1016680013000000833081030334010313010104D4
:1016780067800000130101EB233411142330811417
:1016880013040115233CA4EC2338B4EC2334C4EC34
:1016980013860600930607001387070093070600C2
:1016A8002322F4EC938706002320F4EC9307070029
:1016B800232EF4EA232604FE836744EC033784ECE4
:1016C800B376F7028327C4FE1B8717002326E4FEA0
:1016D8001B87060093972700930604FFB387F6003D
:1016E80023ACE7EE836744EC033784EC636CF700C4
:1016F800836744EC033784ECB357F7022334F4ECE4
:101708006FF09FFB130000006F0080018327C4EB7C
:10171800033784ED833504ED13850700E7000700E0
:10172800832704EC1B87F7FF2320E4EC0327C4FE80
:101738001B070700E34CF7FC6F0000068327C4FE75
:1017480093972700130704FFB307F70003A787EF52
:101758008327C4FE93972700930604FFB387F600F8
:1017680083A787EF938607009307900063F6D70057
:10177800930770056F00800093070003BB87E7009D
:101788009B8707009B870700033784ED833504EDAB
:1017980013850700E70007008327C4FE1B87F7FFB0
:1017A8002326E4FEE34CF0F8130000008330811494
:1017B800033401141301011567800000130101FEB1
:1017C800233C8100130401022334A4FE93870500FF
:1017D8002322F4FE832744FE1B870700930710008B
:1017E80063D0E702833784FE83B7070093868700B8
:1017F800033784FE2330D70083B707006F00C00487
:10180800832744FE9B87070063800702833784FE93
:1018180083B7070093868700033784FE2330D700F9
:1018280083B707006F004002833784FE83B7070041
:1018380093868700033784FE2330D70083A70700E9
:101848009397070293D70702138507000334810192
:101858001301010267800000130101FE233C81008F
:10186800130401022334A4FE938705002322F4FE07
:10187800832744FE1B8707009307100063D0E70205
:10188800833784FE83B7070093868700033784FE77
:101898002330D70083B707006F004004832744FE36
:1018A8009B87070063800702833784FE83B707009E
:1018B80093868700033784FE2330D70083B7070059
:1018C8006F00C001833784FE83B7070093868700C3
:1018D800033784FE2330D70083A70700138507004A
:1018E800033481011301010267800000130101F92B
:1018F8002334110623308106233C91042338210523
:10190800130401072334A4FA2330B4FA233CC4F89F
:101918002338D4F86F0040026382043E833784F989
:1019280093871700233CF4F8833784FA833504FA45
:1019380013850400E7800700833784F983C707000D
:101948009B8407001387040093075002E316F7FCF3
:10195800833784F993871700233CF4F8833784F995
:10196800233CF4FA93070002A303F4FC9307F0FF67
:101978002326F4FC9307F0FF2324F4FC232804FC1B
:10198800232A04FA833784F913871700233CE4F8E1
:1019980083C707009B8407009B86D4FD1B8706002E
:1019A8009307500563ECE7329397060293D7070233
:1019B80013972700971700009387C7CEB307F70040
:1019C80083A707001B87070097170000938787CD19
:1019D800B307F700678007009307D002A303F4FC5E
:1019E8006FF05FFA93070003A303F4FC6FF09FF90D
:1019F800232404FC032784FC930707009B972700F4
:101A0800BB87E7009B9717009B870700BB87F400FD
:101A18009B8707009B8707FD2324F4FC833784F901
:101A280083C707009B840700138704009307F0020D
:101A380063DCE704138704009307900363C6E70495
:101A4800833784F993871700233CF4F86FF09FFAE3
:101A5800833704F9138787002338E4F883A707003E
:101A68002324F4FC6F0080028327C4FC9B870700B3
:101A7800E3DA07F0232604FC6FF0DFF09307100089
:101A8800232AF4FA6FF01FF0130000008327C4FC28
:101A98009B870700E3D807EE832784FC2326F4FC02
:101AA8009307F0FF2324F4FC6FF0DFED832704FD98
:101AB8009B8717002328F4FC6FF0DFEC833704F9C9
:101AC800138787002338E4F883A70700033784FACD
:101AD800833504FA13850700E70007006F00C0216B
:101AE800833704F9138787002338E4F803B907001C
:101AF8006316090017190000130949BA8327C4FCA3
:101B08009B870700635AF008834774FC13F7F70FA5
:101B18009307D0026302F708832784FC93850700A4
:101B280013050900EF00C05C930705000327C4FCF8
:101B38009B870700BB07F7409B8707002326F4FC19
:101B48006F008002834774FC9B870700033784FA81
:101B5800833504FA13850700E70007008327C4FCD0
:101B68009B87F7FF2326F4FC8327C4FC9B87070089
:101B7800E34AF0FC6F004002833784FA833504FAA5
:101B880013850400E7800700130919008327C4FCA4
:101B98009B87F7FF2326F4FC834709009B840700F3
:101BA80063840404832784FC9B870700E3C607FC3F
:101BB800832784FC9B87F7FF2324F4FC832784FC7A
:101BC8009B870700E3DA07FA6F000002833784FA7D
:101BD800833504FA13050002E78007008327C4FC55
:101BE8009B87F7FF2326F4FC8327C4FC9B87070009
:101BF800E34EF0FC6F004010032704FD930704F93F
:101C08009305070013850700EFF01FC5930705002C
:101C1800233CF4FC833784FD63D00702833784FABE
:101C2800833504FA1305D002E7800700833784FD63
:101C3800B307F040233CF4FC9307A000232AF4FCEC
:101C48006F0040069307A000232AF4FC6F000004ED
:101C580093078000232AF4FC6F00400393071000C9
:101C68002328F4FC833784FA833504FA1305000328
:101C7800E7800700833784FA833504FA1305800761
:101C8800E780070093070001232AF4FC032704FDDB
:101C9800930704F99305070013850700EFF01FB2B7
:101CA800233CA4FC832644FD834774FC9B870700E0
:101CB8000327C4FC033684FD833504FA033584FA0C
:101CC800EFF05F9B6F004003833784FA833504FA93
:101CD80013850400E78007006F000002833784FA49
:101CE800833504FA13055002E7800700833784FB25
:101CF800233CF4F8130000006FF01FC41300000029
:101D080083308106033401068334810503390105D4
:101D18001301010767800000130101F92334110240
:101D28002330810213040103233CA4FC2334B400B0
:101D38002338C400233CD4002330E4022334F402C3
:101D480023380403233C140393070404938787FC74
:101D58002334F4FE833784FE93860700033684FD1C
:101D68009305000017F5FFFF1305C573EFF01FB8C3
:101D780093070000138507008330810203340102B2
:101D88001301010767800000130101FC233C810255
:101D980013040104930705002338B4FC232EF4FC34
:101DA800233474FC833704FD2334F4FE833784FE24
:101DB80083B707000327C4FD1377F70F2380E700D5
:101DC800833784FE83B7070013871700833784FEA1
:101DD80023B0E7001300000003348103130101045A
:101DE80067800000130101F02334110C2330810CAB
:101DF8001304010D233CA4F22338B4F22330C400A9
:101E08002334D4002338E400233CF40023300403B3
:101E18002334140393070403233CF4FC930784F44A
:101E2800130784F49306703923A0D700B7B683014B
:101E38009B86363023A2D700B7B603019B86363877
:101E480023A4D700B70603009B86760623A6D700EF
:101E580023B8E70017070000130747F323BCE70080
:101E68000F100000833784F32334F4FE9307040330
:101E7800938707FD2330F4FE033704FE930784F4A9
:101E880013850700930784F393060700033604F3CA
:101E980093850700EFF09FA5833784F3238007001D
:101EA800833784F313870700833784FEB307F7402B
:101EB8009B870700138507008330810C0334010CCE
:101EC8001301011067800000130101FB2334810412
:101ED800130401052334A4FC2330B4FC233CC4FAC6
:101EE800033784FC833704FC3367F700833784FBAC
:101EF800B367F70093F7770063980704833704FC08
:101F08002334F4FE833784FC2330F4FE6F00400250
:101F1800033784FE930787002334F4FE833704FED7
:101F2800938687002330D4FE0337070023B0E700E9
:101F3800033784FC833784FBB307F700033704FEB9
:101F4800E368F7FC6F00C004833704FC233CF4FC0F
:101F5800833784FC2338F4FC6F004002033784FD88
:101F680093071700233CF4FC833704FD938617007E
:101F78002338D4FC034707002380E700033784FC99
:101F8800833784FBB307F700033704FDE368F7FCE6
:101F9800833784FC1385070003348104130101058A
:101FA80067800000130101FB233481041304010539
:101FB8002334A4FC93870500233CC4FA2322F4FCB1
:101FC800033784FC833784FBB367F70093F7770004
:101FD80063920708832744FC93F7F70F233CF4FC2C
:101FE800833784FD93978700033784FDB367F70031
:101FF800233CF4FC833784FD93970701033784FD62
:10200800B367F700233CF4FC833784FD93970702FA
:10201800033784FDB367F700233CF4FC833784FC63
:102028002334F4FE6F008001833784FE1387870012
:102038002334E4FE033784FD23B0E700033784FC30
:10204800833784FBB307F700033784FEE36EF7FC9E
:102058006F00C003833784FC2330F4FE6F00C00197
:10206800833704FE138717002330E4FE032744FC5C
:102078001377F70F2380E700033784FC833784FB4B
:10208800B307F700033704FEE36CF7FC833784FCDF
:1020980013850700033481041301010567800000DC
:1020A800130101FD2334810213040103233CA4FC22
:1020B800833784FD2334F4FE6F000001833784FEE8
:1020C800938717002334F4FE833784FE83C7070001
:1020D800E39607FE033784FE833784FDB307F74092
:1020E8001385070003348102130101036780000090
:1020F800130101FD2334810213040103233CA4FCD2
:102108002338B4FC833784FD2334F4FE6F000001C8
:10211800833784FE938717002334F4FE833704FD46
:102128001387F7FF2338E4FC63880700833784FEAE
:1021380083C70700E39E07FC033784FE833784FDCB
:10214800B307F74013850700033481021301010325
:1021580067800000130101FD233481021304010389
:10216800233CA4FC2338B4FC833784FD1387170071
:10217800233CE4FC83C70700A307F4FE833704FD70
:10218800138717002338E4FC83C707002307F4FEEE
:102198008347F4FE93F7F70F638C07000347F4FEB9
:1021A8008347E4FE1377F70F93F7F70FE30EF7FA79
:1021B8008347F4FE1B8707008347E4FE9B870700DD
:1021C800BB07F7409B87070013850700033481028C
:1021D8001301010367800000130101FD233481020C
:1021E80013040103233CA4FC2338B4FC833784FD87
:1021F8002334F4FE13000000033704FD930717008F
:102208002338F4FC833784FE938617002334D4FEE6
:10221800034707002380E70083C70700E39E07FC06
:10222800833784FD138507000334810213010103FA
:1022380067800000130101FD2334810213040103A8
:10224800233CA4FC233404FE232204FE6F00000177
:10225800833784FD93871700233CF4FC833784FD80
:1022680083C707001387070093070002E302F7FEFE
:10227800833784FD83C70700138707009307D002BD
:10228800630CF700833784FD83C7070013870700B3
:102298009307B002631CF706833784FD83C70700E2
:1022A8001B8707009307D002B307F74093B71700BF
:1022B80093F7F70F2322F4FE833784FD93871700E3
:1022C800233CF4FC6F008004033784FE9307070067
:1022D80093972700B387E700939717002334F4FEFA
:1022E800833784FD13871700233CE4FC83C707006A
:1022F8009B8707009B8707FD9B87070013870700BD
:10230800833784FEB387E7002334F4FE833784FDE4
:1023180083C70700E39A07FA832744FE9B870700D1
:1023280063880700833784FEB307F0406F0080009E
:10233800833784FE138507000334810213010103E8
:0423480067800000AA
:10235000504C49435F48414E444C45523A43616DAD
:102360006520746F206C6F63616C20496E746572B8
:1023700072757074205365727669636520526F754B
:1023800074696E650A000000504C49435F48414E35
:10239000444C45523A476F696E6720746F20496E0E
:1023A0007465727275707420536572766963652006
:1023B000526F7574696E6520666F7220746865204F
:1023C0004269742025750A00536F6D65686F772028
:1023D000636F6D696E6720746F2074686973207213
:1023E000616E646F6D2073656374696F6E0A0000BF
:1023F0006D6379636C6500006D696E7374726574EA
:102400000000000000000000547261702074616BD5
:10241000656E20696E204D616368696E65206D6F21
:1024200064650A00000000000920547261703A20BF
:102430004D6973616C69676E656420666574636875
:1024400020457863657074696F6E000000000000BD
:102450000920547261703A20496E73747275637406
:10246000696F6E20416363657373204661756C7498
:1024700000000000000000000920547261703A2042
:10248000496C6C6567616C20496E73747275637416
:10249000696F6E00000000000920547261703A20DC
:1024A000427265616B706F696E740000000000001D
:1024B0000920547261703A204D6973616C69676ECE
:1024C0006564204C6F616420457863657074696F42
:1024D0006E000000000000000920547261703A2074
:1024E0004C6F616420416363657373204661756C52
:1024F00074000000000000000920547261703A204E
:10250000446976696465206279207A65726F00009B
:102510000920547261703A204D6973616C69676E6D
:1025200065642053746F7265204661756C74000099
:102530000920547261703A2053746F7265204163B0
:1025400063657373204661756C74000000000000C1
:102550000920547261703A20456E636F756E746520
:10256000726564204543616C6C2066726F6D205506
:10257000736572204D6F646500000000000000006C
:102580000920547261703A20456E636F756E7465F0
:10259000726564204543616C6C2066726F6D2053D8
:1025A000757065727669736F72204D6F6465000097
:1025B0000920547261703A20456E636F756E7465C0
:1025C000726564204543616C6C2066726F6D2048B3
:1025D000797065727669736F72204D6F6465000063
:1025E0000920547261703A20456E636F756E746590
:1025F000726564204543616C6C2066726F6D204D7E
:10260000616368696E65204D6F64650000000000BD
:102610000920547261703A20496E73747275637444
:10262000696F6E2050616765204661756C740000AB
:102630000920547261703A204C6F616420506167C8
:1026400065204661756C74000920547261703A20EF
:1026500053746F72652050616765204661756C74B4
:102660000000000000000000547261702074616B73
:10267000656E20696E2053757065727669736F722E
:10268000206D6F64650A0000496D706C656D656E44
:1026900074206D61696E28292C20666F6F210A00F5
:1026A000286E756C6C290000DCF3FFFF3CF6FFFF21
:1026B00028F6FFFF3CF6FFFF3CF6FFFF3CF6FFFF6E
:1026C0003CF6FFFFB0F3FFFF3CF6FFFF3CF6FFFFD9
:1026D00038F3FFFFC8F3FFFF3CF6FFFF44F3FFFFB3
:1026E00050F3FFFF50F3FFFF50F3FFFF50F3FFFFE6
:1026F00050F3FFFF50F3FFFF50F3FFFF50F3FFFFD6
:1027000050F3FFFF3CF6FFFF3CF6FFFF3CF6FFFFF8
:102710003CF6FFFF3CF6FFFF3CF6FFFF3CF6FFFFF9
:102720003CF6FFFF3CF6FFFF3CF6FFFF3CF6FFFFE9
:102730003CF6FFFF3CF6FFFF3CF6FFFF3CF6FFFFD9
:102740003CF6FFFF3CF6FFFF3CF6FFFF3CF6FFFFC9
:102750003CF6FFFF3CF6FFFF3CF6FFFF3CF6FFFFB9
:102760003CF6FFFF3CF6FFFF3CF6FFFF3CF6FFFFA9
:102770003CF6FFFF3CF6FFFF3CF6FFFF3CF6FFFF99
:102780003CF6FFFF3CF6FFFF3CF6FFFF3CF6FFFF89
:102790003CF6FFFF3CF6FFFF3CF6FFFF3CF6FFFF79
:1027A0003CF6FFFF3CF6FFFF1CF4FFFF58F5FFFF70
:1027B0003CF6FFFF3CF6FFFF3CF6FFFF3CF6FFFF59
:1027C0003CF6FFFF3CF6FFFF3CF6FFFF0CF4FFFF7B
:1027D0003CF6FFFF3CF6FFFFB0F5FFFFBCF5FFFF47
:1027E0003CF6FFFF3CF6FFFF40F4FFFF3CF6FFFF27
:1027F000A4F5FFFF3CF6FFFF3CF6FFFFE4F5FFFF0B
:0400000520000000D7
:00000001FF
